{
  "contractName": "Feedback",
  "abi": [
    {
      "inputs": [
        {
          "internalType": "uint256",
          "name": "",
          "type": "uint256"
        }
      ],
      "name": "feedbackEntries",
      "outputs": [
        {
          "internalType": "string",
          "name": "name",
          "type": "string"
        },
        {
          "internalType": "string",
          "name": "message",
          "type": "string"
        }
      ],
      "stateMutability": "view",
      "type": "function",
      "constant": true
    },
    {
      "inputs": [
        {
          "internalType": "string",
          "name": "_name",
          "type": "string"
        },
        {
          "internalType": "string",
          "name": "_message",
          "type": "string"
        }
      ],
      "name": "submitFeedback",
      "outputs": [],
      "stateMutability": "nonpayable",
      "type": "function"
    },
    {
      "inputs": [],
      "name": "getFeedbackCount",
      "outputs": [
        {
          "internalType": "uint256",
          "name": "",
          "type": "uint256"
        }
      ],
      "stateMutability": "view",
      "type": "function",
      "constant": true
    },
    {
      "inputs": [
        {
          "internalType": "uint256",
          "name": "index",
          "type": "uint256"
        }
      ],
      "name": "getFeedback",
      "outputs": [
        {
          "internalType": "string",
          "name": "",
          "type": "string"
        },
        {
          "internalType": "string",
          "name": "",
          "type": "string"
        }
      ],
      "stateMutability": "view",
      "type": "function",
      "constant": true
    }
  ],
  "bytecode": "0x608060405234801561001057600080fd5b506108e2806100206000396000f3fe608060405234801561001057600080fd5b506004361061004c5760003560e01c80631106a3821461005157806314f6c52e146100825780631af31b7f146100b357806338c5c86b146100cf575b600080fd5b61006b60048036038101906100669190610608565b6100ed565b6040516100799291906106b9565b60405180910390f35b61009c60048036038101906100979190610608565b6102ac565b6040516100aa9291906106b9565b60405180910390f35b6100cd60048036038101906100c8919061059c565b6103f0565b005b6100d7610470565b6040516100e49190610710565b60405180910390f35b6060806000805490508310610137576040517f08c379a000000000000000000000000000000000000000000000000000000000815260040161012e906106f0565b60405180910390fd5b6000808481548110610172577f4e487b7100000000000000000000000000000000000000000000000000000000600052603260045260246000fd5b906000526020600020906002020190508060000181600101818054610196906107f4565b80601f01602080910402602001604051908101604052809291908181526020018280546101c2906107f4565b801561020f5780601f106101e45761010080835404028352916020019161020f565b820191906000526020600020905b8154815290600101906020018083116101f257829003601f168201915b50505050509150808054610222906107f4565b80601f016020809104026020016040519081016040528092919081815260200182805461024e906107f4565b801561029b5780601f106102705761010080835404028352916020019161029b565b820191906000526020600020905b81548152906001019060200180831161027e57829003601f168201915b505050505090509250925050915091565b600081815481106102bc57600080fd5b90600052602060002090600202016000915090508060000180546102df906107f4565b80601f016020809104026020016040519081016040528092919081815260200182805461030b906107f4565b80156103585780601f1061032d57610100808354040283529160200191610358565b820191906000526020600020905b81548152906001019060200180831161033b57829003601f168201915b50505050509080600101805461036d906107f4565b80601f0160208091040260200160405190810160405280929190818152602001828054610399906107f4565b80156103e65780601f106103bb576101008083540402835291602001916103e6565b820191906000526020600020905b8154815290600101906020018083116103c957829003601f168201915b5050505050905082565b60006040518060400160405280848152602001838152509080600181540180825580915050600190039060005260206000209060020201600090919091909150600082015181600001908051906020019061044c92919061047c565b50602082015181600101908051906020019061046992919061047c565b5050505050565b60008080549050905090565b828054610488906107f4565b90600052602060002090601f0160209004810192826104aa57600085556104f1565b82601f106104c357805160ff19168380011785556104f1565b828001600101855582156104f1579182015b828111156104f05782518255916020019190600101906104d5565b5b5090506104fe9190610502565b5090565b5b8082111561051b576000816000905550600101610503565b5090565b600061053261052d8461075c565b61072b565b90508281526020810184848401111561054a57600080fd5b6105558482856107b2565b509392505050565b600082601f83011261056e57600080fd5b813561057e84826020860161051f565b91505092915050565b60008135905061059681610895565b92915050565b600080604083850312156105af57600080fd5b600083013567ffffffffffffffff8111156105c957600080fd5b6105d58582860161055d565b925050602083013567ffffffffffffffff8111156105f257600080fd5b6105fe8582860161055d565b9150509250929050565b60006020828403121561061a57600080fd5b600061062884828501610587565b91505092915050565b600061063c8261078c565b6106468185610797565b93506106568185602086016107c1565b61065f81610884565b840191505092915050565b6000610677601383610797565b91507f496e646578206f7574206f6620626f756e6473000000000000000000000000006000830152602082019050919050565b6106b3816107a8565b82525050565b600060408201905081810360008301526106d38185610631565b905081810360208301526106e78184610631565b90509392505050565b600060208201905081810360008301526107098161066a565b9050919050565b600060208201905061072560008301846106aa565b92915050565b6000604051905081810181811067ffffffffffffffff8211171561075257610751610855565b5b8060405250919050565b600067ffffffffffffffff82111561077757610776610855565b5b601f19601f8301169050602081019050919050565b600081519050919050565b600082825260208201905092915050565b6000819050919050565b82818337600083830152505050565b60005b838110156107df5780820151818401526020810190506107c4565b838111156107ee576000848401525b50505050565b6000600282049050600182168061080c57607f821691505b602082108114156108205761081f610826565b5b50919050565b7f4e487b7100000000000000000000000000000000000000000000000000000000600052602260045260246000fd5b7f4e487b7100000000000000000000000000000000000000000000000000000000600052604160045260246000fd5b6000601f19601f8301169050919050565b61089e816107a8565b81146108a957600080fd5b5056fea2646970667358221220f9f843862fccb66b084912e4efff91473e9f9e76fca03b6e7f2e4a248f13003764736f6c63430008000033",
  "immutableReferences": {},
  "source": "// SPDX-License-Identifier: UNLICENSED\r\n\r\npragma solidity ^0.8.0;\r\n\r\ncontract Feedback {\r\n    struct FeedbackEntry {\r\n        string name;\r\n        string message;\r\n    }\r\n\r\n    FeedbackEntry[] public feedbackEntries;\r\n\r\n    // Function to submit feedback\r\n    function submitFeedback(string memory _name, string memory _message) public {\r\n        feedbackEntries.push(FeedbackEntry({name: _name, message: _message}));\r\n    }\r\n\r\n    // Function to get the count of feedback entries\r\n    function getFeedbackCount() public view returns (uint) {\r\n        return feedbackEntries.length;\r\n    }\r\n\r\n    // Function to get a specific feedback entry\r\n    function getFeedback(uint index) public view returns (string memory, string memory) {\r\n        require(index < feedbackEntries.length, \"Index out of bounds\");\r\n        FeedbackEntry storage entry = feedbackEntries[index];\r\n        return (entry.name, entry.message);\r\n    }\r\n}",
  "sourcePath": "C:\\Users\\orji elochukwu\\feedback-dapp\\contracts\\Feedback.sol",
  "compiler": {
    "name": "solc",
    "version": "0.8.0+commit.c7dfd78e.Emscripten.clang"
  },
  "schemaVersion": "3.4.16",
  "updatedAt": "2025-03-07T14:49:44.716Z",
  "networkType": "ethereum",
  "devdoc": {
    "kind": "dev",
    "methods": {},
    "version": 1
  },
  "userdoc": {
    "kind": "user",
    "methods": {},
    "version": 1
  }
}